{
  "_format": "hh-sol-artifact-1",
  "contractName": "Transaction",
  "sourceName": "contracts/Transaction.sol",
  "abi": [
    {
      "anonymous": false,
      "inputs": [
        {
          "indexed": false,
          "internalType": "address",
          "name": "owner",
          "type": "address"
        },
        {
          "indexed": false,
          "internalType": "string",
          "name": "link",
          "type": "string"
        },
        {
          "indexed": false,
          "internalType": "string",
          "name": "message",
          "type": "string"
        },
        {
          "indexed": false,
          "internalType": "uint256",
          "name": "timestamp",
          "type": "uint256"
        },
        {
          "indexed": false,
          "internalType": "string",
          "name": "keyword",
          "type": "string"
        }
      ],
      "name": "addModel",
      "type": "event"
    },
    {
      "inputs": [
        {
          "internalType": "string",
          "name": "link",
          "type": "string"
        },
        {
          "internalType": "string",
          "name": "message",
          "type": "string"
        },
        {
          "internalType": "string",
          "name": "keyword",
          "type": "string"
        }
      ],
      "name": "addToBlockchain",
      "outputs": [],
      "stateMutability": "nonpayable",
      "type": "function"
    },
    {
      "inputs": [],
      "name": "getAllTransactions",
      "outputs": [
        {
          "components": [
            {
              "internalType": "address",
              "name": "owner",
              "type": "address"
            },
            {
              "internalType": "string",
              "name": "link",
              "type": "string"
            },
            {
              "internalType": "string",
              "name": "message",
              "type": "string"
            },
            {
              "internalType": "uint256",
              "name": "timestamp",
              "type": "uint256"
            },
            {
              "internalType": "string",
              "name": "keyword",
              "type": "string"
            }
          ],
          "internalType": "struct Transaction.TransferStruct[]",
          "name": "",
          "type": "tuple[]"
        }
      ],
      "stateMutability": "view",
      "type": "function"
    },
    {
      "inputs": [],
      "name": "getTransactionCount",
      "outputs": [
        {
          "internalType": "uint256",
          "name": "",
          "type": "uint256"
        }
      ],
      "stateMutability": "view",
      "type": "function"
    }
  ],
  "bytecode": "0x608060405234801561001057600080fd5b50610d1a806100206000396000f3fe608060405234801561001057600080fd5b50600436106100415760003560e01c806327506f53146100465780632e7700f0146100645780634cf7acb114610082575b600080fd5b61004e61009e565b60405161005b91906106a6565b60405180910390f35b61006c610313565b60405161007991906106d7565b60405180910390f35b61009c6004803603810190610097919061083b565b61031c565b005b60606001805480602002602001604051908101604052809291908181526020016000905b8282101561030a57838290600052602060002090600502016040518060a00160405290816000820160009054906101000a900473ffffffffffffffffffffffffffffffffffffffff1673ffffffffffffffffffffffffffffffffffffffff1673ffffffffffffffffffffffffffffffffffffffff16815260200160018201805461014b90610911565b80601f016020809104026020016040519081016040528092919081815260200182805461017790610911565b80156101c45780601f10610199576101008083540402835291602001916101c4565b820191906000526020600020905b8154815290600101906020018083116101a757829003601f168201915b505050505081526020016002820180546101dd90610911565b80601f016020809104026020016040519081016040528092919081815260200182805461020990610911565b80156102565780601f1061022b57610100808354040283529160200191610256565b820191906000526020600020905b81548152906001019060200180831161023957829003601f168201915b505050505081526020016003820154815260200160048201805461027990610911565b80601f01602080910402602001604051908101604052809291908181526020018280546102a590610911565b80156102f25780601f106102c7576101008083540402835291602001916102f2565b820191906000526020600020905b8154815290600101906020018083116102d557829003601f168201915b505050505081525050815260200190600101906100c2565b50505050905090565b60008054905090565b600160008082825461032e9190610971565b9250508190555060016040518060a001604052803373ffffffffffffffffffffffffffffffffffffffff16815260200185815260200184815260200142815260200183815250908060018154018082558091505060019003906000526020600020906005020160009091909190915060008201518160000160006101000a81548173ffffffffffffffffffffffffffffffffffffffff021916908373ffffffffffffffffffffffffffffffffffffffff16021790555060208201518160010190816103f99190610b51565b50604082015181600201908161040f9190610b51565b5060608201518160030155608082015181600401908161042f9190610b51565b5050507ff8718420999a2b697b871d29e7566845bd61440649df7a646b8f2e65f60d60953384844285604051610469959493929190610c7c565b60405180910390a1505050565b600081519050919050565b600082825260208201905092915050565b6000819050602082019050919050565b600073ffffffffffffffffffffffffffffffffffffffff82169050919050565b60006104cd826104a2565b9050919050565b6104dd816104c2565b82525050565b600081519050919050565b600082825260208201905092915050565b60005b8381101561051d578082015181840152602081019050610502565b60008484015250505050565b6000601f19601f8301169050919050565b6000610545826104e3565b61054f81856104ee565b935061055f8185602086016104ff565b61056881610529565b840191505092915050565b6000819050919050565b61058681610573565b82525050565b600060a0830160008301516105a460008601826104d4565b50602083015184820360208601526105bc828261053a565b915050604083015184820360408601526105d6828261053a565b91505060608301516105eb606086018261057d565b5060808301518482036080860152610603828261053a565b9150508091505092915050565b600061061c838361058c565b905092915050565b6000602082019050919050565b600061063c82610476565b6106468185610481565b93508360208202850161065885610492565b8060005b8581101561069457848403895281516106758582610610565b945061068083610624565b925060208a0199505060018101905061065c565b50829750879550505050505092915050565b600060208201905081810360008301526106c08184610631565b905092915050565b6106d181610573565b82525050565b60006020820190506106ec60008301846106c8565b92915050565b6000604051905090565b600080fd5b600080fd5b600080fd5b600080fd5b7f4e487b7100000000000000000000000000000000000000000000000000000000600052604160045260246000fd5b61074882610529565b810181811067ffffffffffffffff8211171561076757610766610710565b5b80604052505050565b600061077a6106f2565b9050610786828261073f565b919050565b600067ffffffffffffffff8211156107a6576107a5610710565b5b6107af82610529565b9050602081019050919050565b82818337600083830152505050565b60006107de6107d98461078b565b610770565b9050828152602081018484840111156107fa576107f961070b565b5b6108058482856107bc565b509392505050565b600082601f83011261082257610821610706565b5b81356108328482602086016107cb565b91505092915050565b600080600060608486031215610854576108536106fc565b5b600084013567ffffffffffffffff81111561087257610871610701565b5b61087e8682870161080d565b935050602084013567ffffffffffffffff81111561089f5761089e610701565b5b6108ab8682870161080d565b925050604084013567ffffffffffffffff8111156108cc576108cb610701565b5b6108d88682870161080d565b9150509250925092565b7f4e487b7100000000000000000000000000000000000000000000000000000000600052602260045260246000fd5b6000600282049050600182168061092957607f821691505b60208210810361093c5761093b6108e2565b5b50919050565b7f4e487b7100000000000000000000000000000000000000000000000000000000600052601160045260246000fd5b600061097c82610573565b915061098783610573565b925082820190508082111561099f5761099e610942565b5b92915050565b60008190508160005260206000209050919050565b60006020601f8301049050919050565b600082821b905092915050565b600060088302610a077fffffffffffffffffffffffffffffffffffffffffffffffffffffffffffffffff826109ca565b610a1186836109ca565b95508019841693508086168417925050509392505050565b6000819050919050565b6000610a4e610a49610a4484610573565b610a29565b610573565b9050919050565b6000819050919050565b610a6883610a33565b610a7c610a7482610a55565b8484546109d7565b825550505050565b600090565b610a91610a84565b610a9c818484610a5f565b505050565b5b81811015610ac057610ab5600082610a89565b600181019050610aa2565b5050565b601f821115610b0557610ad6816109a5565b610adf846109ba565b81016020851015610aee578190505b610b02610afa856109ba565b830182610aa1565b50505b505050565b600082821c905092915050565b6000610b2860001984600802610b0a565b1980831691505092915050565b6000610b418383610b17565b9150826002028217905092915050565b610b5a826104e3565b67ffffffffffffffff811115610b7357610b72610710565b5b610b7d8254610911565b610b88828285610ac4565b600060209050601f831160018114610bbb5760008415610ba9578287015190505b610bb38582610b35565b865550610c1b565b601f198416610bc9866109a5565b60005b82811015610bf157848901518255600182019150602085019450602081019050610bcc565b86831015610c0e5784890151610c0a601f891682610b17565b8355505b6001600288020188555050505b505050505050565b610c2c816104c2565b82525050565b600082825260208201905092915050565b6000610c4e826104e3565b610c588185610c32565b9350610c688185602086016104ff565b610c7181610529565b840191505092915050565b600060a082019050610c916000830188610c23565b8181036020830152610ca38187610c43565b90508181036040830152610cb78186610c43565b9050610cc660608301856106c8565b8181036080830152610cd88184610c43565b9050969550505050505056fea26469706673582212201d25aabfdb123b392197620eeefa591ecc19119da88b0a984495ce85a27b55a764736f6c63430008130033",
  "linkReferences": {},
  "deployedLinkReferences": {}
}